:020000040800F2
:1000000000280020C53A00080D3B00080D3B000801
:100010000D3B00080D3B00080D3B000800000000F0
:100020000000000000000000000000000D3B000880
:100030000D3B0008000000000D3B0008AB2F00083E
:100040000D3B00080D3B00080D3B00080D3B000870
:100050000D3B00080D3B0008993000089F30000858
:10006000A5300008AB300008B13000080D3B000897
:100070000D3B00080D3B00080D3B00080D3B000840
:100080000D3B00080D3B00080D3B00080D3B000830
:100090000D3B00080D3B00080D3B0008B730000881
:1000A0000D3B0008E12B00080D3B0008F52B000874
:1000B000F92B00080D2C0008000000000D3B000883
:1000C0000D3B000800000000000000000D3B000890
:1000D00000000000ED3800080539000800000000AD
:1000E000DF3000080D3B00080D3B00080000000059
:1000F0000000000000000000000000000000000000
:0C01000000000000000000005FF808F1A3
:1001100081F0004102E000BF83F0004330B54FEAB8
:1001200041044FEA430594EA050F08BF90EA020F25
:100130001FBF54EA000C55EA020C7FEA645C7FEAB8
:10014000655C00F0E2804FEA5454D4EB5555B8BFDB
:100150006D420CDD2C4480EA020281EA030382EA4C
:10016000000083EA010180EA020281EA0303362DDE
:1001700088BF30BD11F0004F4FEA01314FF4801CB1
:100180004CEA113102D0404261EB410113F0004FC3
:100190004FEA03334CEA133302D0524263EB43037A
:1001A00094EA050F00F0A780A4F10104D5F1200E18
:1001B0000DDB02FA0EFC22FA05F2801841F1000173
:1001C00003FA0EF2801843FA05F359410EE0A5F147
:1001D00020050EF1200E012A03FA0EFC28BF4CF078
:1001E000020C43FA05F3C01851EBE37101F000452E
:1001F00007D54FF0000EDCF1000C7EEB00006EEB3B
:100200000101B1F5801F1BD3B1F5001F0CD34908C4
:100210005FEA30004FEA3C0C04F101044FEA44521B
:1002200012F5800F80F09A80BCF1004F08BF5FEAA2
:10023000500C50F1000041EB045141EA050130BD82
:100240005FEA4C0C404141EB0101013C28BFB1F594
:10025000801FE9D291F0000F04BF01460020B1FADF
:1002600081F308BF2033A3F10B03B3F120020CDAB2
:100270000C3208DD02F1140CC2F10C0201FA0CF090
:1002800021FA02F10CE002F11402D8BFC2F1200CF5
:1002900001FA02F120FA0CFCDCBF41EA0C019040AB
:1002A000E41AA2BF01EB0451294330BD6FEA0404F4
:1002B0001F3C1CDA0C340EDC04F11404C4F12002DF
:1002C00020FA04F001FA02F340EA030021FA04F3F1
:1002D00045EA030130BDC4F10C04C4F1200220FA48
:1002E00002F001FA04F340EA0300294630BD21FA86
:1002F00004F0294630BD94F0000F83F4801306BF4C
:1003000081F480110134013D4EE77FEA645C18BF3F
:100310007FEA655C29D094EA050F08BF90EA020FD6
:1003200005D054EA000C04BF1946104630BD91EACE
:10033000030F1EBF0021002030BD5FEA545C05D1D1
:100340004000494128BF41F0004130BD14F5800410
:100350003CBF01F5801130BD01F0004545F0FE4184
:1003600041F470014FF0000030BD7FEA645C1ABFB9
:10037000194610467FEA655C1CBF0B46024650EAF0
:10038000013406BF52EA033591EA030F41F400211C
:1003900030BD00BF90F0000F04BF0021704730B5A2
:1003A0004FF4806404F132044FF000054FF0000177
:1003B00050E700BF90F0000F04BF0021704730B538
:1003C0004FF4806404F1320410F0004548BF40420D
:1003D0004FF000013EE700BF42004FEAE2014FEA62
:1003E00031014FEA02701FBF12F07F4393F07F4F3D
:1003F00081F06051704732F07F4208BF704793F040
:100400007F4F04BF41F40021704730B54FF4607452
:1004100001F0004521F000411CE700BF50EA010255
:1004200008BF704730B54FF000050AE050EA0102FE
:1004300008BF704730B511F0004502D5404261EB6E
:1004400041014FF4806404F132045FEA915C3FF4AF
:10045000D8AE4FF003025FEADC0C18BF03325FEA4C
:10046000DC0C18BF033202EBDC02C2F1200300FAFD
:1004700003FC20FA02F001FA03FE40EA0E0021FA22
:1004800002F11444BDE600BF70B54FF0FF0C4CF410
:10049000E06C1CEA11541DBF1CEA135594EA0C0FC2
:1004A00095EA0C0F00F0DEF82C4481EA030621EAFD
:1004B0004C5123EA4C5350EA013518BF52EA033538
:1004C00041F4801143F4801338D0A0FB02CE4FF0EA
:1004D0000005E1FB02E506F00042E0FB03E54FF01A
:1004E0000006E1FB03569CF0000F18BF4EF0010E12
:1004F000A4F1FF04B6F5007F64F5407404D25FEA0E
:100500004E0E6D4146EB060642EAC62141EA5551C0
:100510004FEAC52040EA5E504FEACE2EB4F1FD0C02
:1005200088BFBCF5E06F1ED8BEF1004F08BF5FEA80
:10053000500E50F1000041EB045170BD06F0004632
:1005400046EA010140EA020081EA0301B4EB5C04DF
:10055000C2BFD4EB0C0541EA045170BD41F48011D7
:100560004FF0000E013C00F3AB8014F1360FDEBFFC
:10057000002001F0004170BDC4F10004203C35DAD8
:100580000C341BDC04F11404C4F1200500FA05F35B
:1005900020FA04F001FA05F240EA020001F00042FC
:1005A00021F0004110EBD37021FA04F642EB060172
:1005B0005EEA430E08BF20EAD37070BDC4F10C049C
:1005C000C4F1200500FA04F320FA05F001FA04F260
:1005D00040EA020001F0004110EBD37041F100014C
:1005E0005EEA430E08BF20EAD37070BDC4F1200557
:1005F00000FA05F24EEA020E20FA04F301FA05F2BF
:1006000043EA020321FA04F001F0004121FA04F266
:1006100020EA020000EBD3705EEA430E08BF20EA36
:10062000D37070BD94F0000F0FD101F00046400070
:1006300041EB010111F4801F08BF013CF7D041EAF2
:10064000060195F0000F18BF704703F000465200F6
:1006500043EB030313F4801F08BF013DF7D043EAC7
:100660000603704794EA0C0F0CEA135518BF95EA7D
:100670000C0F0CD050EA410618BF52EA4306D1D104
:1006800081EA030101F000414FF0000070BD50EA23
:10069000410606BF1046194652EA430619D094EAAD
:1006A0000C0F02D150EA013613D195EA0C0F05D197
:1006B00052EA03361CBF104619460AD181EA0301EB
:1006C00001F0004141F0FE4141F470014FF00000A3
:1006D00070BD41F0FE4141F4780170BD70B54FF03E
:1006E000FF0C4CF4E06C1CEA11541DBF1CEA1355BE
:1006F00094EA0C0F95EA0C0F00F0A7F8A4EB0504A0
:1007000081EA030E52EA03354FEA013100F0888096
:100710004FEA03334FF0805545EA131343EA12635F
:100720004FEA022245EA111545EA10654FEA002614
:100730000EF000419D4208BF964244F1FD0404F5CD
:10074000407402D25B084FEA3202B61A65EB030529
:100750005B084FEA32024FF480104FF4002CB6EBE6
:10076000020E75EB030E22BFB61A754640EA0C0066
:100770005B084FEA3202B6EB020E75EB030E22BFA6
:10078000B61A754640EA5C005B084FEA3202B6EBE7
:10079000020E75EB030E22BFB61A754640EA9C00A6
:1007A0005B084FEA3202B6EB020E75EB030E22BF76
:1007B000B61A754640EADC0055EA060E18D04FEA34
:1007C000051545EA16754FEA06164FEAC30343EAD4
:1007D00052734FEAC2025FEA1C1CC0D111F4801FA1
:1007E0000BD141EA00014FF000004FF0004CB6E79A
:1007F00011F4801F04BF01430020B4F1FD0C88BF39
:10080000BCF5E06F3FF6AFAEB5EB030C04BFB6EB43
:10081000020C5FEA500C50F1000041EB045170BD36
:100820000EF0004E4EEA113114EB5C04C2BFD4EB63
:100830000C0541EA045170BD41F480114FF0000EE7
:10084000013C90E645EA060E8DE60CEA135594EA63
:100850000C0F08BF95EA0C0F3FF43BAF94EA0C0F66
:100860000AD150EA01347FF434AF95EA0C0F7FF4DB
:1008700025AF104619462CE795EA0C0F06D152EA2F
:1008800003353FF4FDAE1046194622E750EA410613
:1008900018BF52EA43067FF4C5AE50EA41047FF424
:1008A0000DAF52EA43057FF4EBAE12E74FEA410287
:1008B000B2F1E04324BFB3F5001CDCF1FE5C0DD9BE
:1008C00001F0004C4FEAC0024CEA5070B2F1004F08
:1008D00040EB830008BF20F00100704711F0804F0B
:1008E00021D113F13872BCBF01F00040704741F4D0
:1008F00080114FEA5252C2F11802C2F1200C10FAD4
:100900000CF320FA02F018BF40F001004FEAC123B7
:100910004FEAD32303FA0CFC40EA0C0023FA02F35B
:100920004FEA4303CCE77FEA625307D150EA013331
:100930001EBF4FF0FE4040F44000704701F0004001
:1009400040F0FE4040F40000704700BF80F00040DF
:1009500002E000BF81F0004142001FBF5FEA410397
:1009600092EA030F7FEA226C7FEA236C6AD04FEA97
:100970001262D2EB1363C1BFD218414048404140DC
:10098000B8BF5B42192B88BF704710F0004F40F48E
:10099000000020F07F4018BF404211F0004F41F4AA
:1009A000000121F07F4118BF494292EA030F3FD076
:1009B000A2F1010241FA03FC10EB0C00C3F1200389
:1009C00001FA03F100F0004302D5494260EB400018
:1009D000B0F5000F13D3B0F1807F06D340084FEA83
:1009E000310102F10102FE2A51D2B1F1004F40EB78
:1009F000C25008BF20F0010040EA030070474900E0
:100A000040EB0000013A28BFB0F5000FEDD2B0FA7C
:100A100080FCACF1080CB2EB0C0200FA0CF0AABF9F
:100A200000EBC25052421843BCBFD040184370473D
:100A300092F0000F81F4000106BF80F40000013243
:100A4000013BB5E74FEA41037FEA226C18BF7FEA1A
:100A5000236C21D092EA030F04D092F0000F08BF5C
:100A60000846704790EA010F1CBF0020704712F043
:100A70007F4F04D1400028BF40F00040704712F182
:100A800000723CBF00F50000704700F0004343F0E7
:100A9000FE4040F4000070477FEA226216BF08461D
:100AA0007FEA23630146420206BF5FEA412390EAE0
:100AB000010F40F4800070474FF0000304E000BFD6
:100AC00010F0004348BF40425FEA000C08BF704787
:100AD00043F0964301464FF000001CE050EA01024B
:100AE00008BF70474FF000030AE000BF50EA010260
:100AF00008BF704711F0004302D5404261EB41014D
:100B00005FEA010C02BF84460146002043F0B64371
:100B100008BFA3F18053A3F50003BCFA8CF2083A96
:100B2000A3EBC25310DB01FA02FC634400FA02FC9F
:100B3000C2F12002BCF1004F20FA02F243EB0200A6
:100B400008BF20F00100704702F1200201FA02FC08
:100B5000C2F1200250EA4C0021FA02F243EB0200FB
:100B600008BF20EADC7070474FF0FF0C1CEAD0523F
:100B70001EBF1CEAD15392EA0C0F93EA0C0F6FD000
:100B80001A4480EA010C400218BF5FEA41211ED0DE
:100B90004FF0006343EA501043EA5111A0FB0131CA
:100BA0000CF00040B1F5000F3EBF490041EAD3719F
:100BB0005B0040EA010062F17F02FD2A1DD8B3F11B
:100BC000004F40EBC25008BF20F00100704790F08A
:100BD000000F0CF0004C08BF49024CEA502040EADC
:100BE00051207F3AC2BFD2F1FF0340EAC2507047A2
:100BF00040F400004FF00003013A5DDC12F1190FE0
:100C0000DCBF00F000407047C2F10002410021FA51
:100C100002F1C2F1200200FA02FC5FEA310040F169
:100C2000000053EA4C0308BF20EADC70704792F0E2
:100C3000000F00F0004C02BF400010F4000F013A1A
:100C4000F9D040EA0C0093F0000F01F0004C02BF15
:100C5000490011F4000F013BF9D041EA0C018FE784
:100C60000CEAD15392EA0C0F18BF93EA0C0F0AD08A
:100C700030F0004C18BF31F0004CD8D180EA0100B0
:100C800000F00040704790F0000F17BF90F0004F49
:100C9000084691F0000F91F0004F14D092EA0C0F2B
:100CA00001D142020FD193EA0C0F03D14B0218BFBE
:100CB000084608D180EA010000F0004040F0FE4004
:100CC00040F40000704740F0FE4040F440007047A0
:100CD0004FF0FF0C1CEAD0521EBF1CEAD15392EA1F
:100CE0000C0F93EA0C0F69D0A2EB030280EA010C0F
:100CF00049024FEA402037D04FF0805343EA1111A8
:100D000043EA10130CF000408B4238BF5B0042F105
:100D10007D024FF4000C8B4224BF5B1A40EA0C00AA
:100D2000B3EB510F24BFA3EB510340EA5C00B3EBDC
:100D3000910F24BFA3EB910340EA9C00B3EBD10FCA
:100D400024BFA3EBD10340EADC001B0118BF5FEA1C
:100D50001C1CE0D1FD2A3FF650AF8B4240EBC25045
:100D600008BF20F0010070470CF0004C4CEA502006
:100D70007F32C2BFD2F1FF0340EAC250704740F455
:100D800000004FF00003013A37E792F0000F00F047
:100D9000004C02BF400010F4000F013AF9D040EAC5
:100DA0000C0093F0000F01F0004C02BF490011F459
:100DB000000F013BF9D041EA0C0195E70CEAD15351
:100DC00092EA0C0F08D142027FF47DAF93EA0C0F38
:100DD0007FF470AF084676E793EA0C0F04D14B021C
:100DE0003FF44CAF08466EE730F0004C18BF31F0CE
:100DF000004CCAD130F000427FF45CAF31F00043C8
:100E00007FF43CAF5FE700BF4FEA4002B2F1FE4F14
:100E10000FD34FF09E03B3EB12620DD94FEA0023BC
:100E200043F0004310F0004F23FA02F018BF404295
:100E300070474FF00000704712F1610F01D142027C
:100E400005D110F0004008BF6FF0004070474FF030
:100E50000000704710B5054C237833B9044B13B12B
:100E60000448AFF300800123237010BD8C000020E4
:100E7000000000002844000808B5034B1BB10349DB
:100E80000348AFF3008008BD000000009000002080
:100E9000284400080000000013B50446C02002F0FA
:100EA00049FEFFF709FEFFF797FA27A3D3E90023CE
:100EB000FFF7EAFA26A3D3E90023FFF72FF9FFF79C
:100EC000F5FCFFF789FA00222B4BFFF7DDFA22A38E
:100ED000D3E90023FFF7D8FAFFF7E8FCFFF77CFA25
:100EE0001FA3D3E90023FFF717F91FA3D3E90023BA
:100EF000FFF7F4FBFFF7DAFC7CB12049FFF734FE83
:100F0000FFF782FF042200230146CDE900232022BF
:100F10001B4800F08DFA02B010BDFFF75DFA14A374
:100F2000D3E90023FFF7B0FAFFF7C0FC1549FFF73C
:100F30001BFEFFF769FF042301460093402223466E
:100F40000194E5E7AFF30080000000009A99A93F03
:100F50000000006066667E40000000606666124029
:100F600075029A081B9EDE3F9CA223B9FC87A43F12
:100F7000A03F23C78CA6B13F0000503F0000204196
:100F8000BC0000200000C842C228F8B519D0C32810
:100F900019D0C4280CBF0224002402F079FE0D4FA2
:100FA00005463E5D8EB198B902F0B2FE0A4A52F88B
:100FB0002430C31AC82B0BD942F824003D553046C3
:100FC000F8BD0024E9E70124E7E708B101233B5518
:100FD0000026F4E700000020A80000201B4B10B5FD
:100FE0001B788BB31A4B1C68012C0FD0022C1FD01E
:100FF00054BB042001F06BFE7F2343705423014651
:10100000837050230470CB7000230BE0042001F0A8
:101010005EFE732242706D220023827030220146F0
:101020000370C2700422BDE810400A4800F058B9AD
:10103000042001F04CFE782303707923437037239A
:10104000014683707323DEE710BD00BF030000205C
:10105000B8000020BC00002010B5C220FFF794FFAC
:10106000294C60B1294A1368013303F0010348BFDA
:101070005B421360FFF7B2FF02F04AFE2060C3201C
:10108000FFF782FFA0B1224A2248116801314B428A
:1010900003F0070301F0070158BF59421160012214
:1010A000C9B200F090F8FFF799FF02F031FE20601E
:1010B000C420FFF769FF50B1174A137883F001038A
:1010C0001370CBB1FFF78AFF02F022FE206002F01E
:1010D0001FFE2368C01A40F2DC53984207D90E4B1A
:1010E0001B7823B1094B186850B1012808D0BDE81E
:1010F0001040322002F00EBE064800F025F9E6E767
:10110000FFF7CAFEF3E700BFB4000020B8000020DC
:1011100004000020BC000020030000200022044B3B
:101120001A600222034B1A600122034B1A707047A7
:10113000B8000020040000200300002008B50221B0
:10114000C22002F00DFD0221C32002F009FD0221A0
:10115000C42002F005FD0421C02002F001FDFFF7CC
:10116000DDFF064B01221978054800F02CF8FFF747
:1011700035FF02F0CDFD034B186008BD04000020D0
:10118000BC000020B400002064231E221F2101485F
:1011900000F002B8BC00002010B50446084662709A
:1011A00063602170002102F0DBFC6078002102F016
:1011B000D7FC2078002102F031FD6078002102F098
:1011C0002DFD204610BD01F0070141EAC2018170EA
:1011D00070470000074B084A1B680849B3FBF2F34D
:1011E000426810B553434C684A68121B9342FBDCBB
:1011F00010BD00BF2C00002040420F00001000E096
:1012000010B504460121407802F0AAFC2046BDE852
:101210001040FFF7DFBF10B504460121407802F00F
:101220009FFC2046FFF7D6FF0021207802F098FCB3
:101230002046FFF7CFFF6078002102F091FC2046A6
:10124000BDE81040FFF7C6BF70B504460E4608253E
:101250000121207802F084FC2046FFF7BBFFF30752
:101260004CBF00210121607802F07AFC2046FFF794
:10127000B1FF0021207802F073FC013D2046FFF70A
:10128000A9FF15F0FF054FEA5606E1D101212078AC
:1012900002F066FC2946607802F062FC2046FFF707
:1012A00099FF2946207802F05BFC2046FFF792FF69
:1012B000607802F0EDFC10F0FF0503D101216078A9
:1012C00002F04EFC2046FFF785FF0121207802F056
:1012D00047FC2046FFF77EFF281E18BF012070BD87
:1012E000F8B504461E4617460D46FFF789FF402114
:1012F0002046FFF7A9FF2046FFF78DFF2046FFF7A6
:101300007FFF06F0030140392046C9B2FFF79CFF7A
:101310002F44BD4212D12046FFF77DFF2046FFF744
:101320006FFFA178204601F00F0141F08001FFF727
:101330008BFF2046BDE8F840FFF76DBF204615F84B
:10134000011BFFF781FFE4E707B5042200230DEB43
:1013500002010193FFF7C4FF03B05DF804FB10B571
:10136000531E033213F8010F21F07F04204349007C
:1013700093421870C9B2F5D110BD00002DE9F74FA6
:101380000C1EB8BF64428146B4BF012100219DF804
:1013900030509DF83480B8BF64B201AFCAB9C5B946
:1013A0003A46294608F1FF33AB420EDC3F220833B0
:1013B0006B4403F8042C4246394648469DF83830C1
:1013C000FFF78EFF03B0BDE8F08F02F8011B013577
:1013D000EAE74FF0400ADFF854B007EB0806BE42D8
:1013E00007D1002BE7D03A4619464846FFF7B7FF2A
:1013F000E1E792FBF4FE04FB1E205FFA80FC40B99B
:101400003AB935B906F8015C09B106F801AC00211A
:1014100008E00CF00F0C1BF80CC006F801CC08B962
:10142000002AF1D01FFA8EF2013ED8E740440008AE
:1014300030B585B09DF824500C1EACBF0A216FF06A
:1014400009010295002C9DF82050B8BF6442CDE9F7
:1014500000351346A2B2FFF791FF05B030BD7047CB
:1014600038B50E4B05461A784FF47A73B3FBF2F396
:101470000B4A1068B0FBF3F000F0F0FB044658B9DB
:101480000F2D09D8024629464FF0FF3000F096FB99
:101490002046044B1D6038BD0120FCE708000020F9
:1014A0002C0000200C000020074A08B51368032018
:1014B00043F01003136000F06FFB0020FFF7D0FF34
:1014C000FFF7CDFF002008BD00200240034A044B77
:1014D00011681B780B441360704700BFC4000020E4
:1014E00008000020014B1868704700BFC4000020AE
:1014F000F7B5002604460D460196FFF7F3FF236873
:1015000007469A68D10508D50120A36A84F82460AB
:1015100043F02003A36203B0F0BD5A68D20503D4A0
:10152000DB6A13F4700F3DD03D4B02201E6800F0C3
:1015300027FF23683B4A1969B6FBF0F611423A4A85
:1015400051D1D868394908424DD1196911425BD14E
:10155000DA68374B1A420CBF142329235E43019BE0
:10156000B34223D26A1C04D0002D53D1019BB34255
:101570000AD3019B01330193F1E76E1C13D065B9C7
:1015800023681B6898070DD4A36A032043F0040363
:10159000A362002384F82430BDE7FFF7A3FFC01B3C
:1015A000A842EDD8226813689907E6D56FF01203B8
:1015B00022681360A36A43F40073A362936803F480
:1015C0006023B3F5602F0CD1237B53B9A36A23F4B6
:1015D0008073A362A36ADB0403D4A36A43F001030C
:1015E000A362002097E71969114203D1D968104A14
:1015F00011420BD019690F4A114209D1DB6813421D
:101600000CBF5423FC23A9E72923A7E75423A5E70C
:10161000FC23A3E7FFF766FFC01BA842A6D8A8E7F4
:101620002C0000202449922492244912244992003B
:1016300092244900499224000368D86C7047000046
:10164000002373B5019390F824300446012B6CD02D
:10165000012380F824304D680268062D086805EBE8
:10166000850322D81F26556B053B9E4025EA0605BB
:1016700000FA03F32B43536309288B6800EB400502
:101680004FF0070129D9D6681E3DA94026EA01017D
:10169000AB400B43D360A0F11003012B25D90020F0
:1016A000002384F8243002B070BD0C2D4FF01F05CC
:1016B00009D8166B233B9D4026EA050500FA03F383
:1016C0002B431363D8E7D66A413B9D4026EA0505C4
:1016D00000FA03F32B43D362CEE71069A94020EA56
:1016E0000101AB400B431361D9E7114B9A4216D16C
:1016F00093681B02D3D49368102843F400039360CB
:10170000CDD10C4B0C4A1B68B3FBF2F30A225343B6
:101710000193019B002BC2D0019B013BF8E7A36A18
:10172000012043F02003A362BAE70220BBE700BF19
:10173000002401402C00002040420F00806A7047C6
:10174000002337B50193036804469A68D20702D58F
:10175000002003B030BD9A6842F001029A60144B39
:10176000144A1B68B3FBF2F30193019BE3B9FFF743
:10177000B9FE054623689B68DB07E9D4FFF7B2FE94
:10178000401B0228F6D923689B6813F00103F1D1AE
:10179000A26A012042F01002A262E26A84F82430B8
:1017A00042F00102E262D4E7019B013BDCE700BFAB
:1017B0002C00002040420F0010B590F82430044661
:1017C000012B54D0012380F82430FFF7B9FF002803
:1017D00049D1A36A274A23F4407323F0010343F459
:1017E0008073A3622368934204D123494A6812F4A8
:1017F000702F2ED1A26A22F48012A2625A6852057A
:1018000041BFA26A22F4405242F48052A262A26A0C
:1018100012F480521CBFE26A22F00602E262002249
:1018200084F824206FF002021A609A6802F46022A1
:10183000B2F5602F13D10F4A934205D1A2F5806211
:10184000526812F4702F0AD19A6842F4A0029A608A
:1018500010BDA26A42F48012A2624A68CFE79A6879
:1018600042F48012F3E7002384F82430F0E70220EA
:10187000EEE700BF002801400024014038B50368AE
:1018800004469A68D10701D4002038BD9A6822F036
:1018900001029A60FFF726FE054623689B68DB0776
:1018A000F2D5FFF71FFE401B0228F6D923689B687C
:1018B000DA07F2D5A36A012043F01003A362E36ABA
:1018C00043F00103E362E0E7F8B5044600286DD079
:1018D000836A23B9C36280F8243001F05BFA2046A2
:1018E000FFF7CCFFA36A13F0100361D100285FD18A
:1018F000A26A616822F4885222F0020242F00202D7
:10190000E569A668A262227B2943B6F5807F41EA99
:10191000420136D0771E7D427D412D02277D012F69
:1019200006D182BBA269013A45EA423242F400651F
:101930002268B6F5807F576827F4694745EA0705AE
:10194000556097681D4D05EA070545EA0105956054
:1019500001D0012E02D12369013B1B05D56A25F474
:1019600070052B43D3629268154B1340994213D1F3
:101970000023E362A36A23F0030343F00103A3629D
:10198000F8BD3546CAE7A26A42F02002A262E26AC6
:1019900042F00102E262CBE7A36A23F0120343F0B4
:1019A0001003A362E36A43F00103E3620120E7E767
:1019B000A36A43F01003A362F8E700BFFDF7E1FF5D
:1019C000FE0E1FFF38B50446002850D0836A43F04E
:1019D00002038362FFF752FF0546002842D16FF0F1
:1019E0001F02236820461A605968224A0A405A603A
:1019F0009968214A0A409A60DA6802F07F42DA6008
:101A00001A6902F040421A6159691C4A1140596131
:101A1000996911409961D9691140D961196A1140D8
:101A20001962596A11405962996A0A409A62DA6ADF
:101A3000134902F07F42DA62DA6A02F07F42DA6228
:101A40001A6B02F040421A635A6B02F040425A632A
:101A50009A6B0A409A639A6B0A409A6301F0CCF938
:101A6000E562A562002384F82430284638BD0125AC
:101A7000FBE700BF00003FFFF00601FF00F0FFFFA3
:101A80000000C0FF10B590F824300446012B11D09F
:101A9000012380F82430FFF7F1FE38B9A36A23F45C
:101AA000885323F0010343F00103A362002384F869
:101AB000243010BD0220FCE7002373B5019390F899
:101AC00024300446012B62D0012380F82430FFF734
:101AD000D5FE2046FFF734FE054600282FD1A36A25
:101AE000022023F4885323F0020343F00203A3628D
:101AF000284B1E6800F044FCB6FBF0F67600019619
:101B0000019B03BB2268936843F008039360FFF7CF
:101B1000E9FC064623689A68110718D49A6842F0CF
:101B200004029A60FFF7DEFC064623689B685B07A9
:101B300023D4A36A23F0030343F00103A362002329
:101B400084F8243016E0019B013B0193D8E7FFF7AE
:101B5000C9FC801B0A28DDD923689B681807D9D5E2
:101B6000A36A012523F0120343F01003A3620023AC
:101B700084F82430284602B070BDFFF7B3FC801B08
:101B80000A28D2D923689B685A07CED5E8E70225F0
:101B9000F0E700BF2C00002007490302CA6803F4E5
:101BA000E06322F4E0621204120C134343F0BF63BB
:101BB00043F40033CB60704700ED00E0154B30B5C7
:101BC000DC68C4F30224C4F10703251D042B28BFDD
:101BD0000423062D4FF0FF3594BF0024033C05FA83
:101BE00003F321EA0303A54022EA0502A3400028EB
:101BF00043EA0203ACBF00F16040074A4FEA031317
:101C0000DBB2ABBF00F5614000F00F0080F800339D
:101C1000135430BD00ED00E014ED00E0002807DBB8
:101C200001234109034A00F01F00834042F821309C
:101C3000704700BF00E100E000280CDB01220649EC
:101C4000430900F01F008240203341F82320BFF3F6
:101C50004F8FBFF36F8F704700E100E00138B0F1A4
:101C6000807F0BD24FF0E023F021054A586182F8C3
:101C700023100020072298611A61704701207047E5
:101C800000ED00E0002808DB01224309034900F0D1
:101C90001F008240603341F82320704700E100E0DC
:101CA000704708B5FFF7FCFF08BD704710B5044644
:101CB00050B1437903F0FF0213B90271FFF7F5FF4A
:101CC00001230020637110BD0120FCE790F8212062
:101CD0000346022A06D0042282630120002283F8F0
:101CE000202070470268C06B116821F00E0111605E
:101CF000116821F00101116001211A6C01FA02F250
:101D00004260002083F82110E8E7000008B590F851
:101D10002130022B03D004238363012008BD036814
:101D20001A6822F00E021A601A6822F001021A6084
:101D3000174A93421FD0143293421ED0143293425A
:101D40001DD0143293421DD0143293421DD0143250
:101D5000934214BF4FF080734FF480130D4A5360C9
:101D6000012380F82130002380F82030436B03B139
:101D700098470020D2E70123F0E71023EEE74FF465
:101D80008073EBE74FF48053E8E74FF48033E5E7E7
:101D90000800024000000240044A08B551690142AF
:101DA00002D0506101F062F908BD00BF000401409B
:101DB0002DE9F341054638B30368DB0710D42B68DF
:101DC0009F075ED42B68190700F195802B685A078E
:101DD00000F1C180EB69002B40F02C81002029E04C
:101DE000904C636803F00C03042B07D0636803F086
:101DF0000C03082B0AD16368DE0307D523689C0314
:101E0000DDD56B68002BDAD1012013E06B68B3F5E8
:101E1000803F12D1236843F480332360FFF762FBD5
:101E2000064623689803CAD4FFF75CFB801B64282E
:101E3000F7D9032002B0BDE8F0819BB9236823F4F1
:101E400080332360236823F480232360FFF74AFB59
:101E5000064623689903B2D5FFF744FB801B64282C
:101E6000F7D9E6E7B3F5A02F236803D143F4802325
:101E70002360CFE723F480332360236823F4802397
:101E8000CBE7684C636813F00C0F07D0636803F06E
:101E90000C03082B10D16368DA030DD423689B0769
:101EA00002D52B69012BAFD123686A6923F0F803AF
:101EB00043EAC203236085E72A695B4B6AB10122CA
:101EC0001A60FFF70FFB064623689F07ECD4FFF765
:101ED00009FB801B0228F7D9ABE71A60FFF702FB6A
:101EE0000646236898077FF56DAFFFF7FBFA801B66
:101EF0000228F6D99DE7AA694A4E4B4BE2B101226E
:101F0000C3F88024FFF7EEFA0446736A9B070DD5E9
:101F10004FF4FA52454B1B68B3FBF2F3019300BF39
:101F2000019B5A1E0192002BF9D14FE7FFF7DAFA15
:101F3000001B0228E9D97CE7C3F88024FFF7D2FA16
:101F40000446736A9F077FF541AFFFF7CBFA001B8A
:101F50000228F6D96DE7334CE369D80024D4012771
:101F6000E36943F08053E361E36903F08053009336
:101F7000009B2F4E3368D90518D5EB68012B26D16D
:101F8000236A43F001032362FFF7ACFA41F2883879
:101F90000646236A9B073FD5002F3FF41BAFE3693A
:101FA00023F08053E36115E70027E2E7336843F449
:101FB00080733360FFF796FA80463368DA05DCD425
:101FC000FFF790FAA0EB08006428F6D931E7ABB927
:101FD000236A41F2883823F001032362236A23F045
:101FE00004032362FFF77EFA0646236A9807D3D5D7
:101FF000FFF778FA801B4045F7D91AE7052B236ACB
:1020000003D143F004032362BAE723F00103236200
:10201000236A23F00403B6E7FFF764FA801B404508
:10202000B7D906E700100240000042422C00002011
:10203000007000402A4C626802F00C02082A3ED070
:102040000022022B274B1A662CD1FFF74BFA0646CB
:102050002368990120D42B6AB3F5803F05D16268CB
:10206000A96822F400320A436260696A62680B431D
:1020700022F474121343012263601A4B1A66FFF7AD
:1020800031FA054623689A013FF5A8AEFFF72AFA10
:10209000401B0228F6D9CCE6FFF724FA801B022861
:1020A000D6D9C6E6FFF71EFA054623689B017FF5E1
:1020B00095AEFFF717FA401B0228F6D9B9E6012BB7
:1020C0003FF4A2AE60682B6A00F480329A427FF43B
:1020D0009BAE6B6A00F47010C01A18BF0120A9E60D
:1020E00000100240000042420D4A536803F00C0108
:1020F000082912D10B48C3F38341DB03405C09D5A7
:102100005368094AC3F340435043084AD35CB0FBC9
:10211000F3F07047064B584370470348704700BFC1
:10212000001002405244000800127A005044000897
:1021300000093D002DE9F0410D46044610B901208B
:10214000BDE8F081444A136803F007038B4228D3AB
:1021500021688E0730D4CA0743D43F4A136803F07E
:102160000703AB4265D822683C4D12F0040F6CD1D6
:10217000130706D56B68226923F4605343EAC20350
:102180006B60FFF7B1FF6B68354AC3F30313D35C91
:10219000D840344B1860344B1868FFF761F90020C1
:1021A000CEE7136823F007030B431360136803F0B3
:1021B00007038B42C3D1CBE7284B11F0040F1EBF9E
:1021C0005A6842F4E0625A60080742BF5A6842F413
:1021D00060525A605A68A06822F0F00202435A60C6
:1021E000B9E762681D4E012A33681AD113F4003F23
:1021F000A5D0736841F2883823F00303134373605A
:10220000FFF770F907467368626803F00C03B3EBDD
:10221000820FA2D0FFF766F9C01B4045F3D9032017
:102220008EE7022A02D113F0007FE1E713F0020FDC
:10223000DEE7136823F007032B431360136803F0F2
:102240000703AB427FF47BAF8DE76B68E16823F453
:10225000E0630B436B608BE70020024000100240FC
:10226000BC4400082C0000200C000020044B054A50
:102270005B68C3F3C223D35C034A1068D84070473D
:1022800000100240B44400082C00002003682DE92F
:10229000F3410546D80720D5364CE369D9002AD446
:1022A0000126E36943F08053E361E36903F080535F
:1022B0000193019B304F3B68DA051ED5236A13F466
:1022C00040732ED1236A6A6823F440731343236258
:1022D0001EB1E36923F08053E3612A68910706D5B4
:1022E0002449A8684B6823F4404303434B60D3065A
:1022F00037D4002012E00026DCE73B6843F480730B
:102300003B60FFF7EFF880463B68DB05D6D4FFF76C
:10231000E9F8A0EB08006428F6D9032002B0BDE874
:10232000F0816A6802F440729A42CBD00120134ACD
:10233000236AC2F84004002023F44071DF07C2F88A
:1023400040042162BED5FFF7CDF841F28838074638
:10235000236A9807B6D4FFF7C5F8C01B4045F7D9E4
:10236000DBE7044AE968536823F480030B435360B6
:10237000BFE700BF00100240007000400000424272
:10238000022808B544D0102803D0012822D000200C
:1023900034E0254B5A68186810F080702ED0C2F3D4
:1023A00083412248D20348BF5A68405C41BF20495C
:1023B000C2F34042895C1F4A5B684CBFB2FBF1F23A
:1023C0001D4A5B0202FB00F018D403234000B0FB5F
:1023D000F3F013E040F20231134A136A1940B1F5E9
:1023E000817F1ED003F44073B3F5007F07D149F617
:1023F0004040536A13F0020F08BF002008BDB3F538
:10240000407FC4D113684FF2244013F4003FF3E738
:10241000FFF72CFF044B5B68C3F3813301335B0090
:10242000D5E74FF40040E9E700100240644400089B
:102430006244000800127A0000093D0070477047AE
:10244000036870B5DD681E690446B1070DD5AA079B
:102450000BD56FF002021A61012202779B699B077C
:1024600069D000F030FC00232377710710D56A078C
:102470000ED56FF00402236820461A6102222277EB
:102480009B6913F4407F5CD000F01DFC0023237790
:1024900033070FD528070DD56FF0080223682046B3
:1024A0001A6104222277DB69990750D000F00BFCF7
:1024B00000232377F20610D5EB060ED56FF010023D
:1024C000236820461A6108222277DB6913F4407FD3
:1024D00043D000F0F8FB00232377F00708D5E90785
:1024E00006D56FF00102236820461A6100F0C8FB90
:1024F000320608D52B0606D56FF0800223682046E9
:102500001A6100F08CF8700608D5690606D56FF0E0
:102510004002236820461A61FFF791FFB20622D5D8
:10252000AB0620D56FF0200223682046BDE870403E
:102530001A6100F073B800F0C4FB2046FFF77EFF7D
:1025400091E700F0BEFB2046FFF778FF9EE700F022
:10255000B8FB2046FFF772FFAAE700F0B2FB204667
:10256000FFF76CFFB7E770BD154A0368904206D0CD
:10257000B0F1804F03D0A2F59432904207D14A685F
:1025800023F070031343CA6823F4407313434A696A
:1025900023F08003134303608B68C3620B6883627C
:1025A000074B984204BF0B6903630123436103692E
:1025B000DB0742BF036923F001030361704700BFDB
:1025C000002C014010B5044630B390F83D3003F0C4
:1025D000FF021BB980F83C2001F0BCF80223206800
:1025E00084F83D30211DFFF7BFFF0123002084F850
:1025F000463084F83E3084F83F3084F8403084F828
:10260000413084F8423084F8433084F8443084F810
:10261000453084F83D3010BD0120FCE7704770471D
:10262000026802F10C0353E8003F23F490730C326C
:1026300042E8003102680029F2D102F1140353E8A4
:10264000003F23F0010302F1140C4CE80031002993
:10265000F3D1036B012B0BD102F10C0353E8003FC4
:1026600023F0100302F10C0C4CE800310029F3D1E7
:10267000202380F8423000230363704790F84130F4
:10268000202B10D189B182B1C284828400232122FF
:1026900001620168436480F84120CA68184642F02C
:1026A0008002CA607047022070470120704708B559
:1026B0000023406AC385C38401F0DAF808BD70477F
:1026C00090F8423007B5222B42D181680268B1F5FB
:1026D000805F836A3FD1016900293FD15268C2F30C
:1026E000080223F8022B8362C38D013B9BB2C38592
:1026F000002B2DD10268D16821F02001D160D16872
:1027000021F48071D160516921F0010151612022D1
:1027100080F842204363026B012A026828D10363D8
:1027200002F10C0353E8003F23F0100302F10C0CFC
:102730004CE800310029F3D11368DB0605D501917F
:102740001368019353680193019B818DFFF7B7FFD5
:1027500003B05DF804FB39B9016929B95268D2B2F6
:102760001A70836A0133BEE7526802F07F02F7E70E
:1027700001F078F8ECE70000036873B51A680446C6
:102780001607D9685D6908D1960668D58D0666D5A5
:1027900002B0BDE87040FFF793BF05F0010001F4FF
:1027A000907505435BD0D60705D5CD0542BF636C58
:1027B00043F001036364530704D518B1636C43F01D
:1027C00002036364960704D518B1636C43F00403F5
:1027D0006364150707D501F0200303431EBF636C34
:1027E00043F008036364636C002B32D0920604D577
:1027F0008B0602D52046FFF763FF266820467369E3
:10280000626C03F0400302F0080253EA020522D092
:10281000FFF706FF73695E0618D5226802F11403FC
:1028200053E8003F23F04003143242E8003100290E
:10283000F3D1E06B50B1744B4363FFF767FA40B1DB
:10284000E06B436B02B0BDE870401847204601F0D2
:102850000FF802B070BD01F00BF86564F9E7206B6A
:10286000012840F09480D50640F19180C80640F1DF
:102870008E80002201921A6801925A680192019A90
:102880005A6952064DD5E16B0A68526892B2002A25
:10289000DFD0A08D9042DCD9E2858A69202A36D02B
:1028A00003F10C0252E8002F22F4807203F10C00B5
:1028B00040E800210029F3D103F1140252E8002F6F
:1028C00022F0010203F1140040E800210029F3D1B5
:1028D00003F1140252E8002F22F0400203F1140029
:1028E00040E800210029F3D1202284F8422021630E
:1028F00003F10C0252E8002F22F0100203F10C0049
:1029000040E800210029F3D1E06BFFF7DFF9022353
:102910006363E38DA18DC91A89B22046FFF7CFFE0C
:1029200097E7E28DE18D92B289B2002991D0A18D15
:10293000891A89B200298CD003F10C0252E8002FC9
:1029400022F4907203F10C0545E800200028F3D131
:1029500003F1140252E8002F22F0010203F11405E2
:1029600045E800200028F3D1202284F8422020638B
:1029700003F10C0252E8002F22F0100203F10C05C3
:1029800045E800200028F3D102236363C5E716065B
:1029900028D50D0626D594F84120212A7FF459AF79
:1029A000A168226AB1F5805F17D12169A9B932F80F
:1029B000021BC1F3080159602262E28C013A92B213
:1029C000E284002A7FF445AFDA6822F08002DA6000
:1029D000DA6842F04002DA603BE7511C216212786B
:1029E0005A60EAE750067FF534AF4A067FF531AF0B
:1029F000DA68204622F04002DA60202384F8413071
:102A000000F033FF25E700BFAF26000890F8403004
:102A1000012B11D02423026880F84130D36823F0C1
:102A20000C0343F00803D360202380F841300023D7
:102A300080F84030184670470220704790F84030C8
:102A4000012B11D02423026880F84130D36823F091
:102A50000C0343F00403D360202380F841300023AB
:102A600080F84030184670470220704790F84120A7
:102A700090F84200104370470023C285436422232C
:102A80008285026980F84230816203681AB1DA688F
:102A900042F48072DA605A69002042F001025A6101
:102AA000DA6842F02002DA60704770B590F8426050
:102AB000202E07D141B13AB100240463FFF7DCFFB7
:102AC000204670BD0220FCE70120FAE7836810B5BC
:102AD00004462BB10322014698470023C4E9023380
:102AE00010BD836810B5044613B103220146984710
:102AF000204610BD084B984207D0B0F1804F06D059
:102B0000A3F59433984204D0FEE7002070470120DB
:102B100070470220704700BF002C0140024670B58C
:102B2000044652F8100FFFF7E5FF0546104600F087
:102B3000BDFD0023084AE36042F8253004F1600639
:102B400004F1B005B54204D0103D2846FFF7C9FF97
:102B5000F8E7204670BD00BFC8000020F8B5044665
:102B60000846FFF7C7FF236903B1FEE71B4D04F1D9
:102B70000C0245F820200E2204F110063046C4E96C
:102B80000C33C4E90E33C4E91033C4E916232161C0
:102B900084F82C30A36484F84C3084F84D30E46021
:102BA00000F050FD04F1600504F1B007284610352F
:102BB000FFF78CFFBD42F9D100234FF6FF72C4E945
:102BC0000033C4E90632C4E90833A360636180239B
:102BD0003046A362BDE8F840FFF7F4BCC80000200F
:102BE000034B186810B10430FFF72ABC704700BFD0
:102BF000C8000020FFF7F4BF034B586810B1043041
:102C0000FFF71EBC704700BFC8000020034B986848
:102C100010B10430FFF714BC704700BFC80000209B
:102C20000022C0E90022C0E902227047F8B504463C
:102C30000E4600F1600500F1B00728461035FFF799
:102C4000EFFFBD42F9D10023204631462361FFF753
:102C500085FF2046F8BD826810B50AB901F0E0FB97
:102C6000C368BDE81040184708B500B9FEE700F09A
:102C7000E7FC0068836E13B16030FFF7ECFF08BD1E
:102C8000FFF7F2BF10B500B9FEE7037F013B072B4A
:102C900010D8DFE803F004140F100F0F0F120124F7
:102CA00000F0CEFC0068063400EB041083680BB122
:102CB000FFF7D1FF10BD0324F2E70424F0E702245C
:102CC000EEE7FFF7DFBFFFF7DDBF01F00BBA01F062
:102CD00009BA01F00FBA000084B0032834D8DFE845
:102CE00000F0020F1B27194B19489A6942F00402A1
:102CF0009A619B6903F004030093009B04B0704742
:102D0000124B14489A6942F008029A619B6903F0D9
:102D100008030193019BF1E70C4B0F489A6942F0BD
:102D200010029A619B6903F010030293029BE5E78E
:102D3000064B0A489A6942F020029A619B6903F0A7
:102D400020030393039BD9E70020D7E7001002403C
:102D500000080140000C0140001001400014014037
:102D600008B5044900F040FCC0F3C430112800D974
:102D7000FEE708BD0047000841F20103984204D075
:102D800041F20203984202D0FEE710207047112062
:102D9000704700000368134A82B0934211D1124B6E
:102DA0009A6942F400729A619B6903F4007300937C
:102DB000009B0E4B1868C30411D40D4902B000F0FB
:102DC000D9BB0C4A9342F4D1074B9A6942F4806212
:102DD0009A619B6903F480630193019BE9E702B068
:102DE000704700BF00240140001002402000002076
:102DF00000470008002801400368124A93420DD1A1
:102E0000114BDA6842F40072DA60DA6822F4007278
:102E1000DA609A6922F400729A6170470B4A934211
:102E2000FBD1094BDA6842F48062DA60DA6822F496
:102E30008062DA609A6922F480629A619A6922F467
:102E40008062E9E7002401400010024000280140B0
:102E5000F0B593B004463022002106A801F000FA34
:102E60000023E204CDE903330593ADF80630029365
:102E700055D541F202039C4251D8314B204606936E
:102E8000FFF77AFF07260546002301274FF460224B
:102E9000CDE907338DF824308DF82C300C93109346
:102EA0000E938DF83C30274B06A80A970D921C60B4
:102EB000FEF70AFD00283ED103A906A8CDE9035775
:102EC0000596FEF7BDFB002835D106A8FEF7F4FDF8
:102ED000002830D106A8FEF76FFC60BB0A2106A8C7
:102EE000FEF706FB38BB06A8FEF728FC830505D5D0
:102EF00006A8FEF7A1FB80B2ADF8060006A8FEF713
:102F0000C1FDC0B906A8FEF75DFDA0B90C4A9368E3
:102F100023F400039360BDF8060080B20CE00A4978
:102F2000204600F03FFB02A906902046FFF718FF5D
:102F3000069B054613B9002013B0F0BD0226A3E797
:102F4000002401402000002000470008F8B5134984
:102F5000064600F027FBFFF7CDFD114F054657F859
:102F6000203073B9B020FFF7B0FE0C49044630465C
:102F700000F018FB01462046FFF758FE57F82530B1
:102F80001C601C6844B12046FFF7C8FD2046BDE820
:102F9000F840B021FFF79DBEF8BD00BF2C450008EA
:102FA000C8000020FEF79EBA704708B5FEF78EFAFB
:102FB000FEF777FEFFF7F8FF08BD70470F4B84B0B0
:102FC000DA6942F08052DA61DA6902F080520192E5
:102FD000019A9A6942F001029A619A6902F001022B
:102FE0000292029A5A6942F040025A615B6903F008
:102FF00040030393039B04B0704700BF00100240DE
:103000000C4BD3F8FC20D2015EBFD3F8FC2042F079
:103010008072C3F8FC200022074B5A601A6842F005
:1030200001021A6000BF00BF00BF5868B0FA80F00C
:103030004009704700ED00E0001000E008B5FFF720
:10304000BDFFFFF7DDFFFEF72FFAFFF7B6FF00F039
:1030500091FCBDE808400148FEF728BE240000208E
:103060000023C0E90033C0E9023370470023012880
:1030700003F101020AD11422DBB25343054A181DA1
:103080001044816829B11A4413691847134640084F
:10309000EDE77047D40000200120FEF77DBE02203E
:1030A000FEF77ABE0420FEF777BE0820FEF774BE56
:1030B0001020FEF771BE08B52020FEF76DFE4020FF
:1030C000FEF76AFE8020FEF767FE4FF48070FEF781
:1030D00063FEBDE808404FF40070FEF75DBE38B5F2
:1030E00006244FF48065A8B2FEF756FE013C4FEA75
:1030F0004505F8D138BD0000344A08B5104606230E
:1031000000F8043BFFF7ACFF072302F1180013752A
:10311000FFF7A6FF082302F12C0082F82830FFF702
:103120009FFF092302F1400082F83C30FFF798FF2F
:103130000A23172102F1540082F85030FFF790FF64
:1031400002F1680082F86410FFF78AFF02F17C0048
:1031500082F87810FFF784FF02F1900082F88C105B
:10316000FFF77EFF02F1A40082F8A010FFF778FFBE
:1031700082F8B410282102F1B800FFF771FF02F1C4
:10318000CC0082F8C810FFF76BFF02F1E00082F874
:10319000DC10FFF765FF02F1F40082F8F010FFF792
:1031A0005FFF02F5847082F80411FFF759FF02F502
:1031B0008E7082F81811FFF753FFBDE8084002F542
:1031C000987082F82C11FFF74BBF00BFD40000208D
:1031D00038B5054CA4F5A075143C201DFFF781FC03
:1031E000AC42F9D138BD00BF14020020614B82B05F
:1031F0009A69013842F001029A619B6903F0010368
:103200000193019B23281AD8DFE800F0121B222922
:103210002E353A41191919464D565B626B74798007
:103220008919191919198E95191919199A9FA6AD85
:10323000514A536843F0E06343F00103536002B026
:1032400070474D4A536823F0010343F0E063F5E70C
:10325000494A536843F0E06343F00203EEE7464A0D
:10326000536823F00203F0E7434A536843F0E063F6
:1032700043F00403E2E7404A536823F00403E4E721
:103280003D4A536843F0E06343F00803D6E73A4A07
:10329000536823F00803D8E7374A536843F0E063E4
:1032A00043F0C003CAE7344A536823F0C00343F035
:1032B000E06343F04003C1E72F4A536823F0C003A3
:1032C000C3E72D4A536843F0E06343F44073B5E726
:1032D000294A536823F4407343F0E06343F40073D6
:1032E000ACE7254A536823F4407343F0E06343F4AA
:1032F0008073A3E7204A536823F44073A5E71E4A6E
:10330000536843F0E06343F4406397E71A4A536815
:1033100023F4406343F0E06343F400638EE7164A0E
:10332000536823F4406390E7134A536843F0E06323
:1033300043F4004382E7104A536823F4004384E7D0
:103340000D4A536823F0E06378E70B4A536823F093
:10335000E06343F0807371E7074A536823F0E0634A
:1033600043F000736AE7044A536823F0E06343F0D4
:10337000806363E7001002400000014091FAA1F36E
:10338000B3FA83F370B50D0E0F2691FAA1F1B1FADD
:1033900081F144599B0006FA03F3890024EA0304EF
:1033A0008A402243425170BD91FAA1F3B3FA83F3EC
:1033B00070B50D0E042691FAA1F1B1FA81F14459CC
:1033C0009B0006FA03F3890024EA03048A4022439F
:1033D000425170BD431C04D00C3151F80C3C5A1CB6
:1033E00001D100207047834201F10C01F5D1012089
:1033F00070470000431C2DE9F34106460F4600D1FB
:10340000FEE7594B00F00F02C0F3031001F007086C
:1034100053F82240FFF760FCB8F1010F054615D1C3
:1034200094FAA4F3B3FA83F30321200E2A589B00E5
:1034300001FA03F322EA030294FAA4F3B3FA83F342
:103440009B00994011432950012213E0C7F3062045
:10345000B8F1030F0AD801A353F828F06F3400081D
:1034600049340008D3340008E1340008FEE7FFF7D0
:10347000BDFE08222146284608F1FF38FFF77EFFEF
:10348000B8F1010F06D817F0080218BF0422214630
:10349000FFF78AFF94FAA4F2230EB2FA82F2E958F7
:1034A0000F239200934094FAA4F2B2FA82F2C7F387
:1034B00001170B409200012F23FA02F312D0022FC2
:1034C0003BD0082B21D1042221462846FFF756FF86
:1034D0001BE07F2801D10922CCE7FFF787FEFAE73E
:1034E0000022C7E7042B04D1082221462846FFF713
:1034F00045FF230A93FAA3F3B3FA83F20123E968A1
:10350000934021EA14210B43EB60184B9A6942F077
:1035100001029A619B6903F001030193019BA6F1EB
:103520000D03012B14D8124A536823F0E06343F0D3
:103530008063536002B0BDE8F081042B04D10822FF
:1035400021462846FFF71AFFEB6823EA1423DBE73E
:103550000F2E02D0133E012EECD8054A536823F0FB
:10356000E06343F00073E4E7744400080010024095
:1035700000000140431C06D17047834202D1896894
:10358000FFF738BF0C310B685A1CF6D1FEE70B6809
:103590005A1C01D100207047834201D1486870470E
:1035A0000C31F4E7431C01D0FFF7F1BF0020704756
:1035B0004B6813B94FF0FF307047834201D1086860
:1035C00070470C31F4E708B1FFF7F2BF4FF0FF305E
:1035D000704703460868421C00D17047984201D1E9
:1035E000886870470C31F5E7431C01D0FFF7F1BF45
:1035F000704700000F4B1A6842F001021A605968C8
:103600000D4A0A405A601A6822F0847222F480320D
:103610001A601A6822F480221A605A6822F4FE02A4
:103620005A604FF41F029A604FF00062034B9A6099
:10363000704700BF001002400000FFF800ED00E0FE
:10364000043870470368164A84B093420BD1154B77
:103650009A6942F400629A619B6903F400630193E2
:10366000019B04B07047B3F1804F0BD103F50433D5
:10367000DA6942F00102DA61DB6903F001030293C7
:10368000029BEEE7084A9342EBD1064BDA6942F01F
:103690000202DA61DB6903F002030393039BE0E7B4
:1036A000002C0140001002400004004003680E4A54
:1036B000934206D102F56442936923F40063936157
:1036C0007047B3F1804F05D1084AD36923F0010355
:1036D000D3617047064A9342FBD102F50332D369A6
:1036E00023F00203F4E700BF002C01400010024069
:1036F00000040040431C0AD0094B98420AD003F54D
:103700009433984208D0B0F1804F07D0FEE76FF0B5
:103710000D0070471D207047192070471C2070470E
:1037200000040040431C0AD0094B98420AD003F51C
:103730009433984208D0B0F1804F07D0FEE76FF085
:103740000D0070471D2070471B2070471C207047DC
:103750000004004038B50446FFF774FF0068FFF727
:10376000C9FFD4E91212FEF729FA2068FFF7C2FF59
:10377000FEF754FA22681046FFF7D4FF05461046BC
:10378000FFF7B8FF85420BD0D4E912122846FEF7A6
:1037900015FA2068FFF7C6FFBDE83840FEF73EBACD
:1037A00038BD000008B5074B90F8652053F822009B
:1037B000FFF75CF900F02200A0F1220358425841C3
:1037C00008BD00BF1402002008B5074B90F8652023
:1037D00053F82200FFF74AF900F02100A0F121037D
:1037E0005842584108BD00BF1402002038B51546A4
:1037F0000446B8B1016590F96400FEF71DFAB4F80B
:103800007630E16E9BB294F865001944064BAAB27B
:1038100053F82000FEF732FF94F96400BDE8384009
:10382000FEF7FCB938BD00BF1402002048B1836D1B
:10383000013306D190F86520024B53F82200FFF7C0
:10384000E5B870471402002048B1836D013306D1FA
:1038500090F86520024B53F82200FFF7EFB870474D
:1038600014020020836C04381847C36C04381847CE
:1038700030B5044650F8043985B01D6815F00105CF
:1038800012D0002200921A6800925B680093009B9D
:10389000FFF788FF40BB0122204604F1620105B01A
:1038A000BDE83040FFF701B9196811F0020106D0F8
:1038B00001951A6801925B680193019BE8E71A6819
:1038C00012F0040206D002911A6802925B68029319
:1038D000029BDDE719680907DAD503921A6803929B
:1038E0005B680393039BD3E705B030BD08B5252083
:1038F000FEF7C8F9024B1868BDE80840FEF73CBF68
:1039000014020020262008B5FEF7BCF9034B5868C6
:1039100018B1BDE80840FEF72FBF08BD1402002013
:1039200003460A4910B508680344EFF3088293423E
:1039300005D90C224FF0FF30054B1A6010BD054A27
:10394000054C121B9342F4D20B60F7E730000020C5
:10395000880400200028002000040000FEE700008A
:103960001622024B4FF0FF301A6070478804002087
:103970000120704710B594B0142200210CA800F06B
:103980006FFC142200210DEB020000F069FC1022F4
:10399000002101A800F064FC02244FF480330122CE
:1039A000CDE91143CDE90A234FF4E0130AA80E92A2
:1039B0001393FEF7FDF900B1FEE70F23CDE90534BF
:1039C0004FF480630790CDE90830214605A8FEF743
:1039D000B1FB00B1FEE7122301934FF40043CDE9A0
:1039E000033001A8FEF752FC00B1FEE714B010BD91
:1039F00008B50320FEF7D0F8BDE8084000F0A6B9EE
:103A000008B5AFF30080FDF799FBFDF725FB00F04B
:103A10008FF9FAE70246C0B2092810B517D827492E
:103A200002F4E06351F820100B43C9B222291CD9DB
:103A300003F0C004C02C01D1C9291FD9CA2A39D02A
:103A4000CB2A41F2020018BF4FF0FF3015E002F020
:103A5000C003C02BF2D1C928F0D8184902F03F04A6
:103A600051F8241002F4E063DEE7154803F4E06344
:103A700050F821001843431CE0D010BD0F4903F05B
:103A80003F0351F823400E4B092853F8243007D840
:103A900051F82010114301F4E06143EA0100EAE724
:103AA00002F0C000C02802D102F03F00F0E74FF45E
:103AB000E061F2E741F20100DFE700BFFC470008E8
:103AC00024480008FFF796FD0B480C490C4A0023D8
:103AD00002E0D458C4500433C4188C42F9D3094AC4
:103AE000094C002301E013600432A242FBD300F032
:103AF000CFFBFFF785FF7047000000208C000020FF
:103B0000F84800088C0000208C040020FEE7914259
:103B10000FD008D90123891A8B40984208D301306D
:103B2000C8400138704720B10130521A9040F8E780
:103B30000020704710B5FFF76DFF431C0AD0064CFC
:103B40002168FFF785F9054B21681A68BDE8104028
:103B5000FFF7DDBF002010BD34000020380000203A
:103B6000C3B2222B2DE9F0410D462AD8274A00F492
:103B7000E06452F823301C43621C44D0244EC4F34A
:103B8000031756F8273004F00F0823FA08F3DB0771
:103B900010D520461F49FFF71DFC10B12046FFF746
:103BA000D5F9012256F8273002FA08F223EA020377
:103BB00046F82730052D15D8DFE805F015211B1D27
:103BC0001F2300F0C002C02A1DD1C92B1BD8124BE5
:103BD00000F03F0253F822200C4B00F4E06453F84D
:103BE0002230C8E7FEE700212046BDE8F041FFF79C
:103BF00001BC1021F8E72021F6E70321F4E70121B9
:103C0000F2E70921F0E7BDE8F08100BF2448000891
:103C10001C0200202C450008FC470008C3B2222BE0
:103C20001BD8174A00F4E06052F823301843431CB5
:103C300025D010F0C00F02BF124BC0F3031253F88F
:103C40002220114B00F00F0053F8203018BF002243
:103C5000C3F30F2391B11361704700F0C002C02A73
:103C60000DD1C92B0BD8094B00F03F0253F822208D
:103C7000034B00F4E06053F82230D7E753617047FC
:103C8000244800081000002074440008FC47000885
:103C9000C3B2222B1DD81A4A00F4E06052F8233038
:103CA0001843431C26D010F0C00F25D1154BC0F38C
:103CB000031253F82230144A9B6800F00F0052F8A8
:103CC0002020D84300EA122080B2B0FA80F04009E8
:103CD000704700F0C002C02A0CD1C92B0AD80B4B88
:103CE00000F03F0253F82220054B00F4E06053F847
:103CF0002230D5E70020704700239B68FFDE00BF1D
:103D0000244800081000002074440008FC47000804
:103D1000FFF748B938B5044648B1FFF743F90546FF
:103D200000F016F8FFF73EF9431BA342F8D338BD65
:103D300008B5044B2BB1044800F00BF808B1AFF301
:103D4000008008BD000000002C020020FFF776B9BB
:103D50007047B0F80831B0F80421981A00F03F001D
:103D60007047B0F80831B0F804219BB293421ABFF3
:103D7000D0F8FC30985C4FF0FF30704790F8063177
:103D8000B0F80A01C0B2834227BFC3F13F03C01895
:103D9000C01A00F1FF30704707B503688DF80710AF
:103DA00001225B680DF10701984703B05DF804FB41
:103DB000B0F87610826F10B50A4402F03F02A0F806
:103DC0007620B0F87610B0F8722089B28A421AD004
:103DD000B0F876404032A4B2B0F87610121B5442CC
:103DE00089B204F03F0402F03F02C1F1400158BF24
:103DF00062428A4228BF0A4604498267FFF7F6FCFE
:103E00004FF0FF3010BD0020FCE700BFB13D0008BF
:103E10002DE9F843036804469B6888461646984790
:103E200001232374D4F8EC30B4F8067101338146D1
:103E3000C7F1400709D194F8103133B1002304F1E0
:103E4000940084F81031FFF7F1FC236820469B684A
:103E500098470028F9D03546BD4225D84D4523D88E
:103E6000B4F80631D4F800015A19402A184430D861
:103E70002A46414600F032FA2F46B4F806311D4476
:103E800005F03F05A4F8065104F194052846FFF714
:103E90009BFC30B93A4628461549C4F80C71FFF727
:103EA000A5FC3046BDE8F8834F4528BF4F46236840
:103EB0003A4641465B6820469847236820469B68FF
:103EC0009847ED1BB844B4F806718146C7F1400726
:103ED000C2E7C3F140073A46414600F0FFF9D4F883
:103EE0000001EA1B08EB070100F0F8F9C5E700BF85
:103EF000B13D0008C0F8F030009B914208BF4FF080
:103F0000FF31C0F8F43000F11103C0F8FC30002399
:103F1000C0E93A2100F15102A0F80831C0E940237C
:103F2000A0F80A3170470000F7B54FF47A731746CE
:103F30000022C0E901231C4B044603604FF0FF330D
:103F4000C0F8EC30194B1A4E9C420D46F06A05D170
:103F5000B36AC4F8EC30C4F8E8000AE01549FFF78A
:103F600021FB854215D1B36AC4F8EC30F36AC4F87A
:103F7000E8304FF0FF33012F08BFC4F8EC30009356
:103F80002046D4E93A214FF0FF33FFF7B3FF03B0E7
:103F9000F0BD28460849FFF716FB0649C4F8EC00B7
:103FA0002846FFF710FBD6E7B84800082C0200208F
:103FB00024480008FC440008CC440008037C70B589
:103FC00004460D46A3B1FDF78DFA0646B4F8062166
:103FD000B4F80A319BB29A420AD0002DF8D0FDF70E
:103FE00081FA801B8542F1D8B4F80A31A4F8063171
:103FF00070BD0021FFF7E2BFD0F8EC3010B50133FF
:1040000004460ED10368DB68984794F8103143B931
:10401000012304F1940084F81031BDE81040FFF74B
:1040200013BC10BD10B50446FFF7E6FFB4F8082135
:10403000B4F8043192B29A4217BFD4F8FC204FF082
:10404000FF30D05C01331CBF03F03F03A4F8043100
:1040500010BD0000002202490248FFF765BF00BF03
:10406000003801402C02002010B50446FFF750FE36
:10407000E060236820465B699847002808DAFFF76C
:1040800047FEE368C01AA3689842F2D34FF0FF30AE
:1040900010BDF8B507460D460C468E18B44201D146
:1040A000601BF8BD3846FFF7DFFF431CF8D004F86B
:1040B000010BF3E72DE9F0410746884616461D46F9
:1040C00073B100243846FFF7CFFF431C05D04045AD
:1040D00003D030550134A542F4D12046BDE8F0812B
:1040E0001C46FAE7024B0146186800F02DB800BFE5
:1040F0003C000020024B0146186800F0FDB800BFEC
:104100003C00002070B50F4E0C463168054611B9D1
:1041100000F0AEF830602146284600F0A9F8431CB4
:1041200003D14FF0FF34204670BDC41C24F00304BB
:10413000A042F8D0211A284600F09AF80130F2D1B6
:10414000EFE700BF440300202DE9F843CD1C25F024
:10415000030508350C2D38BF0C25002D064601DB64
:10416000A94204D90C2333600020BDE8F883DFF8AE
:10417000D48000F069F8D8F800301C4644BB2946CA
:104180003046FFF7BFFF431C044658D1D8F8004023
:104190002746002F43D1002C4BD0236839463046A8
:1041A00004EB030900F064F8814542D121683046F0
:1041B0006D1A2946FFF7A6FF01303AD023682B4439
:1041C0002360D8F800305A6862BBC8F800700FE06E
:1041D0002268521B20D40B2A17D96119A3422560EB
:1041E00018BF5960636808BFC8F8001062514B607F
:1041F000304600F02FF804F10B00231D20F00700DB
:10420000C21A1CBF1B1AA350AFE76268A3420CBFBF
:10421000C8F800205A60EBE723466468AEE73C46E6
:104220007F68B6E71A465B68A342FBD10023536060
:10423000DEE70C233046336000F00CF894E70560AD
:10424000D6E700BF48030020014800F045B800BF92
:1042500084040020014800F040B800BF840400201E
:1042600003460244934200D1704703F8011BF9E76B
:1042700038B50023054D044608462B60FFF750FB78
:10428000431C02D12B6803B1236038BD8804002091
:1042900070B500260C4D0D4B5B1B9C10A64209D13E
:1042A000002600F0C1F80A4D0A4B5B1B9C10A64289
:1042B00005D170BD55F8043B98470136EEE755F837
:1042C000043B98470136F2E7DC480008DC48000868
:1042D000DC480008F0480008704770470A449142E3
:1042E00000F1FF3300D1704710B511F8014B914236
:1042F00003F8014FF9D110BD38B50546002940D06B
:1043000051F8043C0C1F002BB8BFE418FFF79CFFCA
:104310001C4A136833B9636014602846BDE838400E
:10432000FFF798BFA34208D9206821188B4201BF2C
:1043300019685B6809182160EDE71A465B680BB1E4
:10434000A342FAD911685018A0420BD12068014449
:10435000501883421160E0D118685B68084410600F
:104360005360DAE702D90C232B60D6E720682118C6
:104370008B4201BF19685B68091821606360546053
:10438000CBE738BD48030020062008B500F02CF824
:104390000120FFF7E3FA1F2938B505460C4604D97A
:1043A000162303604FF0FF3038BDC26B12B152F8D4
:1043B00021304BB9284600F031F822460146284604
:1043C000BDE8384000F018B8012B0AD0591C03D1C1
:1043D000162303600120E7E70021204642F824105D
:1043E00098470020E0E70000024B01461868FFF7FD
:1043F000D2BF00BF3C00002038B50023064D044664
:10440000084611462B60FFF7ABFA431C02D12B681C
:1044100003B1236038BD00BF88040020FFF7A8BAAD
:1044200008B5FFF7B1FF0000F8B500BFF8BC08BC45
:104430009E467047F8B500BFF8BC08BC9E46704762
:104440003F065B4F666D7D077F6F777C395E7971C4
:10445000010202030405060708090A0B0C0D0E0FE2
:104460001010010202030405060708090A0B0C0DCF
:104470000E0F1010010100000202000004040000F1
:10448000080800001010000020200000404000003C
:104490008080000001000104020002040400040402
:1044A000080008041000100420002004400040040C
:1044B00080008004000000000102030400000000EE
:1044C00000000000010203040607080903000000C1
:1044D00000440040100800000A00000000380140BD
:1044E0001006000017000000003801401005000011
:1044F000FFFFFFFF000000000000000002000000BE
:10450000004400401208000009000000003801408B
:1045100012060000160000000038014012050000DD
:10452000FFFFFFFF0000000000000000000000008F
:104530000000004012800000000100000000004068
:104540001290000001000000000000401212010063
:1045500001010000000000401210010002000000F4
:104560000000004012920100020100000000004023
:10457000129101000300000000000040121202002E
:1045800003010000000000401211020006000000BC
:10459000000400401295000007000000002C0140BC
:1045A000128D1000070100000004004012150100E8
:1045B00008000000002C0140128E000008010000DD
:1045C000002C0140128D000009000000002C014069
:1045D000120E010009010000002C0140120D010023
:1045E0000A000000002C0140128E01000A010000A8
:1045F000002C0140128D01000B000000002C014036
:10460000120E02000B010000002C0140120D0200EE
:104610000F00000000000040129100000F01000098
:1046200000000040128F000010000000002C01402C
:10463000120D11001001000000040040129501004D
:10464000100200000004004012940100110000005C
:10465000002C0140128D11001101000000040040E7
:1046600012150200110200000004004012140200A2
:1046700013000000000000401211010013010000AF
:1046800000000040120F0100140000000004004070
:1046900012940000150000000004004012140100F4
:1046A0001A00000000000040129001001A010000F2
:1046B00000000040128F01001B00000000000040BD
:1046C000121002001B01000000000040120F020047
:1046D0001D000000002C0140128E10001E00000082
:1046E000002C0140120E11001F000000002C0140A0
:1046F000128E1100FFFFFFFF00000000000000000D
:104700000000000000240140030000000001000040
:1047100000280140030000000100000000240140C7
:104720000380000001010000002801400380000018
:10473000020000000024014003000100020100000B
:104740000028014003000100030000000024014094
:1047500003800100030100000028014003800100E4
:1047600004000000002401400300020004010000D6
:104770000028014003000200050000000024014061
:1047800003800200050100000028014003800200B0
:1047900006000000002401400300030006010000A1
:1047A000002801400300030007000000002401402E
:1047B000038003000701000000280140038003007C
:1047C000100000000024014003000400100100005C
:1047D00000280140030004001100000000240140F3
:1047E0000380040011010000002801400380040040
:1047F000FFFFFFFF000000000000000014000000A9
:10480000150000001600000017000000180000004E
:10481000190000001A0000001B0000001C0000002E
:104820001D00000019000000180000001700000023
:104830001600000015000000140000001300000026
:104840000F0000000C0000000B0000000A00000038
:1048500009000000080000001F0000001E0000000A
:104860001D0000001C0000002D0000002E000000B4
:104870002F00000000000000010000000200000006
:104880000300000004000000050000000600000016
:104890000700000010000000110000001A000000D6
:1048A0001B000000120000000D0000000E000000C0
:1048B0000000000000000000993D0008113E0008C3
:1048C0007D3D0008F33F0008533D000825400008E7
:0C48D000633D000893400008B54000085C
:1048DC00F1390008790E000889110008F930000838
:0448EC00554000082B
:0848F000550E0008D13100084B
:1048F800010000010200000001000000100000009B
:1049080000080140000C0140001001400014014063
:10491800FFFFFFFF003002400000000000127A0095
:10492800900400200C0000000A0000004000002055
:10493800000000004C030020B40300201C040020E9
:10494800000000000000000000000000000000005F
:10495800000000000000000000000000000000004F
:10496800000000000000000000000000000000003F
:0C49780000000000000000000000000033
:0400000508003AC5F0
:00000001FF
